:100000000C942B0D0C9499120C9472120C94530DA9
:100010000C945F1B0C94551B0C94530D0C94530DB6
:100020000C94530D0C94530D0C94530D0C94530DD0
:100030000C94530D0C94530D0C94530D0C94530DC0
:100040000C942C120C94530D0C94530D0C94530DD2
:100050000C94530D0C94530D0C94530D0C94530DA0
:100060000C94C0120C94530D0C94530D0C94C71B9C
:100070000C94530D0C94530D0C94530D0C94530D80
:100080000C94530D0C94530D0C94530D0C94530D70
:100090000C94530D0C94530D0C94530D0C94530D60
:1000A0000C94530D0C94530D0C94530D0C94530D50
:1000B0000C94530D8A118D1180118411AE11AE1163
:1000C000911195119B119F11AE11A511A911A9189C
:1000D000AE18B318BD1804190419C718CF18D718CB
:1000E000E1180419EB18FA18084AD73B3BCE016E09
:1000F00084BCBFFDC12F3D6C74319ABD56833DDA7F
:100100003D00C77F11BED9E4BB4C3E916BAAAABE8D
:10011000000000803F07634236B79BD8A71A3968B2
:100120005618AEBAAB558C1D3CB7CC5763BD6DEDC0
:10013000FD753EF6177231BF000000803F080000D9
:1001400000BE922449123EABAAAA2ABECDCCCC4C0A
:100150003E00000080BEABAAAAAA3E00000000BF7D
:10016000000000803F0000000000084178D3BB433E
:1001700087D1133D190E3CC3BD4282AD2B3E68ECC6
:100180008276BED98FE1A93E4C80EFFFBE01C4FF4D
:100190007F3F000000000000090C0D080002010074
:1001A0000003040700000000000000000000000041
:1001B000150180961180FAB103012C2DB203012C98
:1001C0002DB306012C2D012C2DB40107C003A20272
:1001D00084C101C5C2020A00C3028A2AC4028AEE8F
:1001E000C5010E20003601C83A01052A04000000AE
:1001F0007F2B040000007FE010021C071237322919
:100200002D29252B3900010310E110031D07062EAF
:100210002C292D2E2E373F0000021013800A298032
:100220006444656C6179206D733A0A0A52504D3A04
:100230000A0A5072657373205B53454C5D20746FDE
:10024000206578697400536C6F776C7920726F74D5
:10025000617465207468650A646576696365206108
:10026000726F756E642065766572790A617869735C
:100270000A0A5072657373205B53454C5D20746F9E
:1002800020657869740A0A43757272656E74204F2E
:1002900066667365743A002D313A20436F756E744B
:1002A0002075702C20303A204F4646001414006010
:1002B000000F00009000198001080030C0079E0068
:1002C0006F600C6300C0300C0300C0300606007085
:1002D000E003FC000F000000000000000000000030
:1002E000141400000000000003C000E400F8403FC8
:1002F0000C07108061980C1F00C0300C0300C03048
:1003000006060070E003FC000F0000000000000083
:1003100000000000141400000000000000000000B5
:1003200000F0003FC0070E0060780C0CE0C1830CA9
:100330001830C0CE06078070E003FC000F000000FC
:100340000000000000000000141400000000000085
:100350000000000000F0003FC0070E0060600C03CA
:1003600000C0300C0300C1F0061980710803F0C012
:100370000F84000E40003C00000000001414000038
:10038000000000000000000000F0003FC0070E0069
:1003900060600C0300C0300C0300C63006F6007924
:1003A000E0030C001080019800090000F000060036
:1003B00014140000000000000000000000F0003FE6
:1003C000C0070E0060600C0300C0300C0300F83062
:1003D00019860108E030FC021F00270003C000005E
:1003E00000000000141400000000000000000000E5
:1003F00000F0003FC0070E01E06073030C1830C12D
:10040000830730301E060070E003FC000F00000080
:100410000000000000000000141400000000003C78
:100420000002700021F0030FC0108E0198600F834E
:1004300000C0300C0300C03006060070E003FC0072
:100440000F00000000000000000000000D0D0F81F3
:10045000FF1FFCFBEF8FF83F80FF1FFAFBC79FFCDD
:100460007FC0F800183C0000000000000000000001
:10047000000000000000000000000000000000007C
:10048000000000000000000000000000000000006C
:10049000000000000000000000000000000000005C
:1004A000000000000000000000000000000000004C
:1004B0000000000003FFC003FFC003FFC003FFC034
:1004C00003FFC003FFC000000000000000000000A8
:1004D000000000000000000000000000000000001C
:1004E000000000000000000000000000000000000C
:1004F00000000000000000000000000000000000FC
:1005000000000000000000000000000000000000EB
:1005100000000000000000000000183CFFFFFFFF8B
:10052000FFFFFFFFFFFFFFFFFFFFFFFFFFFFFC00DD
:100530003FFC003FFC003FFC003FFC003FFC003F55
:10054000FC003FFC003FFC003FFC003FFC003FFC88
:10055000003FFC003FFC003FFC003FFC003FFC0074
:100560003FFC003FFC003FFC003FFC003FFC003F25
:10057000FC003FFC003FFC003FFC003FFC003FFC58
:10058000003FFC003FFC003FFC003FFC003FFC0044
:100590003FFC003FFC003FFC003FFC003FFC003FF5
:1005A000FC003FFC003FFC003FFC003FFC003FFC28
:1005B000003FFC003FFC003FFC003FFC003FFFFF12
:1005C000FFFFFFFFFFFFFFFFFFFFFFFFFFFFFFFF3B
:1005D000183C003F00003F00003F00003F00003F8C
:1005E00000003F00003F00003F00003F00003F00D0
:1005F000003F00003F00003F00003F00003F0000C0
:100600003F00003F00003F00003F00003F00003F70
:1006100000003F00003F00003F00003F00003F009F
:10062000003F00003F00003F00003F00003F00008F
:100630003F00003F00003F00003F00003F00003F40
:1006400000003F00003F00003F00003F00003F006F
:10065000003F00003F00003F00003F00003F00005F
:100660003F00003F00003F00003F00003F00003F10
:1006700000003F00003F00003F00003F00003F003F
:10068000003F00003F00183CFFFFFFFFFFFFFFFFA0
:10069000FFFFFFFFFFFFFFFFFFFF00003F00003FE6
:1006A00000003F00003F00003F00003F00003F000F
:1006B000003F00003F00003F00003F00003F0000FF
:1006C0003F00003F00003F00003F00003F00003FB0
:1006D00000003F00003F00003FFFFFFFFFFFFFFF64
:1006E000FFFFFFFFFFFFFFFFFFFFFFFC0000FC001D
:1006F00000FC0000FC0000FC0000FC0000FC00000E
:10070000FC0000FC0000FC0000FC0000FC0000FC01
:100710000000FC0000FC0000FC0000FC0000FC00ED
:1007200000FC0000FC0000FC0000FFFFFFFFFFFFDB
:10073000FFFFFFFFFFFFFFFFFFFFFFFF183CFFFF73
:10074000FFFFFFFFFFFFFFFFFFFFFFFFFFFFFFFFB9
:1007500000003F00003F00003F00003F00003F005E
:10076000003F00003F00003F00003F00003F00004E
:100770003F00003F00003F00003F00003F00003FFF
:1007800000003F00003F00003F00003F00003F032B
:10079000FFFF03FFFF03FFFF03FFFF03FFFF03FF55
:1007A000FF00003F00003F00003F00003F00003F0F
:1007B00000003F00003F00003F00003F00003F00FE
:1007C000003F00003F00003F00003F00003F0000EE
:1007D0003F00003F00003F00003F00003F00003F9F
:1007E000FFFFFFFFFFFFFFFFFFFFFFFFFFFFFFFF19
:1007F000FFFF183CFC003FFC003FFC003FFC003FBB
:10080000FC003FFC003FFC003FFC003FFC003FFCC5
:10081000003FFC003FFC003FFC003FFC003FFC00B1
:100820003FFC003FFC003FFC003FFC003FFC003F62
:10083000FC003FFC003FFC003FFC003FFC003FFC95
:10084000003FFC003FFFFFFFFFFFFFFFFFFFFFFF39
:10085000FFFFFFFFFFFFFF00003F00003F00003FE2
:1008600000003F00003F00003F00003F00003F004D
:10087000003F00003F00003F00003F00003F00003D
:100880003F00003F00003F00003F00003F00003FEE
:1008900000003F00003F00003F00003F00003F001D
:1008A000003F00003F00003F183CFFFFFFFFFFFF3D
:1008B000FFFFFFFFFFFFFFFFFFFFFFFFFFFFFFFC4B
:1008C0000000FC0000FC0000FC0000FC0000FC003C
:1008D00000FC0000FC0000FC0000FC0000FC00002C
:1008E000FC0000FC0000FC0000FC0000FC0000FC20
:1008F0000000FC0000FC0000FC0000FC0000FFFF0A
:10090000FFFFFFFFFFFFFFFFFFFFFFFFFFFFFFFFF7
:1009100000003F00003F00003F00003F00003F009C
:10092000003F00003F00003F00003F00003F00008C
:100930003F00003F00003F00003F00003F00003F3D
:1009400000003F00003F00003F00003F00003FFF6D
:10095000FFFFFFFFFFFFFFFFFFFFFFFFFFFF183C51
:10096000FFFFFFFFFFFFFFFFFFFFFFFFFFFFFFFF97
:10097000FFFFFC0000FC0000FC0000FC0000FC008D
:1009800000FC0000FC0000FC0000FC0000FC00007B
:10099000FC0000FC0000FC0000FC0000FC0000FC6F
:1009A0000000FC0000FC0000FC0000FC0000FC005B
:1009B00000FFFFFFFFFFFFFFFFFFFFFFFFFFFFFF46
:1009C000FFFFFFFC003FFC003FFC003FFC003FFC42
:1009D000003FFC003FFC003FFC003FFC003FFC00F0
:1009E0003FFC003FFC003FFC003FFC003FFC003FA1
:1009F000FC003FFC003FFC003FFC003FFC003FFCD4
:100A0000003FFFFFFFFFFFFFFFFFFFFFFFFFFFFFB5
:100A1000FFFFFFFF183CFFFFFFFFFFFFFFFFFFFF90
:100A2000FFFFFFFFFFFFFFFF00003F00003F000050
:100A30003F00003F00003F00003F00003F00003F3C
:100A400000003F00003F00003F00003F00003F006B
:100A5000003F00003F00003F00003F00003F00005B
:100A60003F00003F00003F00003F00003F00003F0C
:100A700000003F00003F00003F00003F00003F003B
:100A8000003F00003F00003F00003F00003F00002B
:100A90003F00003F00003F00003F00003F00003FDC
:100AA00000003F00003F00003F00003F00003F000B
:100AB000003F00003F00003F00003F00003F0000FB
:100AC0003F00003F00003F00003F183CFFFFFFFFDA
:100AD000FFFFFFFFFFFFFFFFFFFFFFFFFFFFFC0028
:100AE0003FFC003FFC003FFC003FFC003FFC003FA0
:100AF000FC003FFC003FFC003FFC003FFC003FFCD3
:100B0000003FFC003FFC003FFC003FFC003FFC00BE
:100B10003FFC003FFC003FFC003FFC003FFFFFFFAD
:100B2000FFFFFFFFFFFFFFFFFFFFFFFFFFFFFFFCD8
:100B3000003FFC003FFC003FFC003FFC003FFC008E
:100B40003FFC003FFC003FFC003FFC003FFC003F3F
:100B5000FC003FFC003FFC003FFC003FFC003FFC72
:100B6000003FFC003FFC003FFC003FFC003FFFFF5C
:100B7000FFFFFFFFFFFFFFFFFFFFFFFFFFFFFFFF85
:100B8000183CFFFFFFFFFFFFFFFFFFFFFFFFFFFF1F
:100B9000FFFFFFFFFC003FFC003FFC003FFC003F6D
:100BA000FC003FFC003FFC003FFC003FFC003FFC22
:100BB000003FFC003FFC003FFC003FFC003FFC000E
:100BC0003FFC003FFC003FFC003FFC003FFC003FBF
:100BD000FC003FFFFFFFFFFFFFFFFFFFFFFFFFFFE7
:100BE000FFFFFFFFFF00003F00003F00003F00004D
:100BF0003F00003F00003F00003F00003F00003F7B
:100C000000003F00003F00003F00003F00003F00A9
:100C1000003F00003F00003F00003F00003F000099
:100C20003F00003F00003F00003F00003F00003F4A
:100C300000003F00003F000000000000005F0000D7
:100C40000007000700147F147F14242A7F2A122330
:100C50001308646236495620500008070300001C40
:100C60002241000041221C002A1C7F1C2A08083E49
:100C7000080800807030000808080808000060605C
:100C80000020100804023E5149453E00427F4000CA
:100C900072494949462141494D331814127F1027A2
:100CA000454545393C4A49493141211109073649F1
:100CB000494936464949291E0000140000004034C5
:100CC00000000008142241141414141400412214CA
:100CD0000802015909063E415D594E7C1211127CF1
:100CE0007F494949363E414141227F4141413E7F52
:100CF000494949417F090909013E414151737F0832
:100D000008087F00417F41002040413F017F0814D7
:100D100022417F404040407F021C027F7F04081038
:100D20007F3E4141413E7F090909063E4151215E16
:100D30007F09192946264949493203017F01033FAA
:100D40004040403F1F2040201F3F4038403F631439
:100D500008146303047804036159494D43007F413B
:100D600041410204081020004141417F0402010278
:100D7000044040404040000307080020545478409D
:100D80007F284444383844444428384444287F3831
:100D90005454541800087E090218A4A49C787F08B3
:100DA00004047800447D40002040403D007F10282E
:100DB000440000417F40007C047804787C080404EF
:100DC000783844444438FC1824241818242418FC87
:100DD0007C08040408485454542404043F44243C2C
:100DE0004040207C1C2040201C3C4030403C44289B
:100DF0001028444C9090907C4464544C4400083635
:100E000041000000770000004136080002010204A2
:100E1000023C2623263C56697375616C004F46469A
:100E200000466163746F7279207265736574004364
:100E30006C6F636B2063616C6962726174696F6E61
:100E40000053657420484173742E205A65726F00F8
:100E5000546F67676C65204841737369737400420F
:100E6000756C6C657400536F6C6964005374616ECB
:100E700064616C6F6E65203976004C69506F20316B
:100E8000312E3176004C69506F20372E3476004E6B
:100E9000694D4820392E3676004E694D4820382E4F
:100EA000347600566F6C7461676520726561646F9B
:100EB000757400436F6D70617373204D6F646500CE
:100EC00043616C69627261746520636F6D706173F8
:100ED000730053656C2042746E2052656C6F6164C0
:100EE00000416D6D6F2062617220666C61736800F5
:100EF000416D6D6F20626172206469722E20004224
:100F0000617474657279207479706500416D6D6FDC
:100F100020426172205374796C65002243726974B7
:100F20006963616C2220636F6C6F7200225761727B
:100F30006E2220636F6C6F720022476F6F642220F5
:100F4000636F6C6F72004261636B67726F756E6482
:100F500020636F6C6F7200426173652055492043B6
:100F60006F6C6F7200526F7461746520554920393F
:100F700030206467727300426C7565004772656566
:100F80006E005265640050726573657420360050BF
:100F90007265736574203500507265736574203412
:100FA0000050726573657420330050726573657408
:100FB0002032005072657365742031003C3C204241
:100FC00061636B004E6578742070616765203E3EFA
:100FD0000053617665206272696768746E65737329
:100FE000004D6561737572652064656C61792F527F
:100FF0004F460055492053657474696E67730053FA
:1010000065742074696D65206D696E757465730013
:101010005365742074696D6520686F757273004D37
:10102000616E6167652050726573657473003C3C46
:10103000205361766520262045786974001D0E16C0
:101040000EBC0F500E410E2F0E210E660E5F0EA32A
:101050000E990E8F0E850E7A0E6C0EBC0FFF0EF0E1
:101060000EE10ED20EC00EB30EC40FBC0F650F57AB
:101070000F460F390F2C0F1B0F0C0FBC0F820F7C6C
:101080000F770FBC0FB30FAA0FA10F980F8F0F860A
:101090000F2E101F101010FF0FF30FE10FD10FC410
:1010A0000F0C07FFE803AA9AA9AA9803FFE003051B
:1010B000F7C8808000000000000000000000000071
:1010C0000000000000000000000000000000000020
:1010D0000000000000000000000000000000000010
:1010E00000000000000000003FFFFFFFFFFFFFFCCB
:1010F0000000000000000000FFFFFFFFFFFFFFFFF8
:101100000000000000000000C0000000000000031C
:101110000000000000000001C0000000000000030B
:1011200080000000000000018000000000000001BD
:1011300080000000000000038000000000000001AB
:10114000C0000000000000030000000000000000DC
:10115000C0000000000000070000000000000000C8
:10116000E000000000000006000000000000000099
:10117000600000000000000E000000000000000001
:10118000700000000000000C0000000000000000E3
:10119000300000000000001C000000000000000003
:1011A00038000000000000180000000000000000EF
:1011B00018000000000000380000000000000000DF
:1011C0001C000000000000300000000000000000D3
:1011D0000C00000000000070000000000000000093
:1011E0000E00000000000060000000000000000091
:1011F00006000000000000E0000000000000000009
:1012000007000000000000C0000000000000000017
:1012100003000000000001C000000000000000000A
:1012200003800000000001800000000000000000BA
:1012300001800000000003800000000000000000AA
:1012400001C00000000003000000000000000000DA
:1012500000C00000000007000000000000000000C7
:1012600000E0000000000600000000000000000098
:101270000060000000000E00000000000000000000
:101280000070000000000C000000000000000000E2
:101290000030000000001C00000000000000000002
:1012A00000380000000018000000000000000000EE
:1012B00000180000000038000000000000000000DE
:1012C000001C0000000030000000000000000000D2
:1012D000000C000000007000000000000000000092
:1012E000000E000000006000000000000000000090
:1012F000000600000000E000000000000000000008
:10130000000700000000C000000000000000000016
:10131000000300000001C000000000000000000009
:1013200000038000000180000000000000000000B9
:1013300000018000000380000000000000000000A9
:101340000001C000000300000000000000000000D9
:101350000000C000000700000000000000000000C6
:101360000000E00000060000000000000000000097
:1013700000006000000E00000000000000000000FF
:1013800000007000000C00000000000000000000E1
:1013900000003000001C0000000000000000000001
:1013A00000003800001800000000000000000000ED
:1013B00000001800003800000000000000000000DD
:1013C00000001C00003000000000000000000000D1
:1013D00000000C0000700000000000000000000091
:1013E00000000E000060000000000000000000008F
:1013F0000000060000E00000000000000000000007
:101400000000070000C00000000000000000000015
:101410000000030001C00000000000000000000008
:1014200000000380018000000000000000000000B8
:1014300000000180038000000000000000000000A8
:10144000000001C0030000000000000000000000D8
:10145000000000C0070000000000000000000000C5
:10146000000000E006000000000000000000000096
:10147000000000600E0000000000000000000000FE
:10148000000000700C0000000000000000000000E0
:10149000000000301C000000000000000000000000
:1014A00000000038180000000000000000000000EC
:1014B00000000018180000000000000000000000FC
:1014C00000000018180000000000000000000000EC
:1014D00000000018180000000000000000000000DC
:1014E00000000018180000000000000000000000CC
:1014F00000000018180000000000000000000000BC
:1015000000000018180000000000000000000000AB
:10151000000000181800000000000000000000009B
:10152000000000181800000000000000000000008B
:10153000000000181800000000000000000000007B
:10154000000000181800000000000000000000006B
:10155000000000181800000000000000000000005B
:10156000000000181800000000000000000000004B
:10157000000000181800000000000000000000003B
:10158000000000181800000000000000000000002B
:10159000000000181800000000000000000000001B
:1015A000000000181800000000000000000000000B
:1015B00000000018180000000000000000000000FB
:1015C00000000018180000000000000000000000EB
:1015D00000000018180000000000000000000000DB
:1015E00000000018180000000000000000000000CB
:1015F00000000018180000000000000000000000BB
:1016000000000018180000000000000000000000AA
:10161000000000181800000000000000000000009A
:10162000000000181800000000000000000000008A
:10163000000000181800000000000000000000007A
:10164000000000181800000000000000000000006A
:10165000000000181800000000000000000000005A
:10166000000000181800000000000000000000004A
:10167000000000181800000000000000000000003A
:10168000000000181800000000000000000000002A
:10169000000000181800000000000000000000001A
:1016A000000000181800000000000000000000000A
:1016B00000000018180000000000000000000000FA
:1016C000000000181C0000000000000000000000E6
:1016D000000000380E0000000000000000000000C4
:1016E0000000007007000000000000000000000083
:1016F000000000E003800000000000000000000087
:10170000000001C001C00000000000000000000057
:101710000000038000E00000000000000000000066
:101720000000070000700000000000000000000042
:1017300000000E0000380000000000000000000063
:1017400000001C00001C0000000000000000000061
:1017500000003800000E0000000000000000000043
:101760000000700000070000000000000000000002
:101770000000E00000038000000000000000000006
:101780000001C0000001C0000000000000000000D7
:10179000000380000000E0000000000000000000E6
:1017A00000070000000070000000000000000000C2
:1017B000000E0000000038000000000000000000E3
:1017C000001C000000001C000000000000000000E1
:1017D0000038000000000E000000000000000000C3
:1017E0000070000000000700000000000000000082
:1017F00000E0000000000380000000000000000086
:1018000001C00000000001C0000000000000000056
:1018100003800000000000E0000000000000000065
:101820000700000000000070000000000000000041
:101830000E00000000000038000000000000000062
:101840001C0000000000001C000000000000000060
:10185000380000000000000E000000000000000042
:101860007000000000000007000000000000000001
:10187000E000000000000003800000000000000104
:10188000C000000000000001FFFFFFFFFFFFFFFF9F
:1018900080000000000000007FFFFFFFFFFFFFFE51
:1018A0000000000000000000000000000000000038
:1018B000000000003C0CFFFFFFFFFE00000FFFFFD9
:1018C000FFFFFFF000C000000007FFFC0C0000005D
:1018D00000601FFCC000000006000FEC00000000CC
:1018E000600007C00000000600007C0000000060EF
:1018F00000FEC00000000601FFCC000000007FFFDA
:10190000C0FFFFFFFFFFFF000FFFFFFFFFE0000032
:1019100000000000000000000000000000000000C7
:1019200000000000000000000000000000000000B7
:1019300000000000000000000000000000000000A7
:101940000000000000000000000000000000000097
:101950000000000000000000000000000000000087
:101960000000000000000000000000000000000077
:101970000000000000000000000000000000000067
:101980000000000000000000000000000000000057
:101990000000000000000000000000000000000047
:1019A0000000000000000000000000000000000037
:1019B0000000000000000000000000000000000027
:1019C0000000000000000000000000000000000017
:1019D0000000000000000000000000000000000007
:1019E00000000000000000000000000000000000F7
:1019F0000000000000000A0521186E1D8621004528
:101A00006469742076616C75653A000000000025F9
:101A10000028002B002E0000000000240027002AD0
:101A2000002D00040404040404040402020202025F
:101A3000020303030303030505050501020408105F
:101A40002040800102040810200102040810200434
:101A5000080102000B3011241FBECFEFD8E0DEBF1B
:101A6000CDBF11E0A0E0B1E0E4E4FEE602C00590E5
:101A70000D92A83BB107D9F723E0A8EBB1E001C074
:101A80001D92AE39B207E1F71DE0CBE2DDE004C004
:101A90002197FE010E94D935CA32D107C9F70E94A9
:101AA00008210C9420370C940000089585ED809354
:101AB000BC008091BC0084FDFCCF1092C50208954B
:101AC000613298F42091C502243089F46093250294
:101AD000282FA5E0B2E0FC018E2F821B861718F498
:101AE00081918D93F9CF80E0089581E0089582E09F
:101AF00008950895E091990380919803E81730F4D0
:101B0000F0E0E158FD4F808190E008958FEF9FEF66
:101B100008959091990380919803981750F4E92FB4
:101B2000F0E0E158FD4F208130E09F5F90939903F2
:101B300002C02FEF3FEFC90108958091980390E014
:101B400020919903821B91090895CF92DF92EF9221
:101B5000FF920F931F93CF93DF937C01CB018A01F8
:101B600020915B02222389F0EB016B01C40ED51E8C
:101B7000CC15DD0569F06991D701ED91FC910190DB
:101B8000F081E02DC7010995F3CF642F0E94600D0D
:101B9000C801DF91CF911F910F91FF90EF90DF90DF
:101BA000CF900895CF93DF931F92CDB7DEB76983AF
:101BB00020915B022223D1F020917E02203240F05E
:101BC00021E030E0FC013383228380E090E015C007
:101BD00080915C02E82FF0E0E35AFD4F99819083F9
:101BE0008F5F80935C0280937E0205C061E0CE012E
:101BF00001960E94600D81E090E00F90DF91CF91FF
:101C0000089508956370FC01658708952F923F92AF
:101C10004F925F926F927F928F929F92AF92BF92FC
:101C2000CF92DF92EF92FF920F931F93CF93DF93A8
:101C3000CDB7DEB764970FB6F894DEBF0FBECDBF49
:101C40009C8B8B8B162F6A30B1F4DC0115961C929D
:101C50001E9214971C962C911C9716968D919C9110
:101C60001797B8E02B9F800D911D1124EB89FC89FB
:101C70009783868340C16D3009F43DC1AB89BC892F
:101C80001E968C911E971C96BC91B983882311F1E6
:101C9000EB89FC8984819581F6E0BF9F800D911DC1
:101CA000112481389105B4F0AB89BC8915961C923A
:101CB0001E92149716968D919C911797E981B8E022
:101CC000EB9F800D911D1124AB89BC8917969C93C5
:101CD0008E931697EB89FC89A480B580F0E8AF1647
:101CE000B1040CF0F8C0AB89BC8916968D909C901D
:101CF0001797B0E88B1691040CF0EDC0E981CE2E59
:101D0000D12C950186E0E89F200D311D11243A87E2
:101D10002987121613060CF0DEC0D60183E0AA0F45
:101D2000BB1F8A95E1F7BC87AB87CD01880D991D54
:101D3000181619060CF0CFC0EB89FC898785811134
:101D400003C0103B08F01F5FAB89BC891A966D90E9
:101D50007C901B971896ED91FC911997FB83EA8371
:101D6000ED91FC9111970284F385E02DCD01099549
:101D7000612F70E06052710925E0269FC001279F06
:101D8000900D112495012B5F3F4F3E872D87BD821B
:101D9000AC822501DC01AA19BB09B88BAF87F4011D
:101DA0003896FA8BE98BEF85F889E40DF51DEA5C2E
:101DB000F34F249128879F828E821401388530FF4B
:101DC00013C0AB89BC89ED91FC91B981B13031F47C
:101DD0000484F585E02D2A813B8116C00684F785B1
:101DE000E02DEA80FB801AC0EA81FB816E167F0637
:101DF000F1F0AB89BC89ED91FC91B981B13051F41E
:101E00000484F585E02D9301A101B2018B899C89A1
:101E100009950DC00684F785E02D730186019601B2
:101E20004E815F816C817D818B899C890995E885D4
:101E3000E695E887FFEF2F1A3F0A2E813F812C0D90
:101E40003D1D3F832E8389899A898215930509F068
:101E5000B5CF9FEF491A590AAC81BD81AC0DBD1DAC
:101E6000BD83AC83ED85FE85E415F50509F09BCFB8
:101E70002A813B816216730621F1AB89BC89ED9101
:101E8000FC91B981B13071F4B5016B5F7F4F00886F
:101E9000F189E02D830128E030E0A4018B899C8941
:101EA00009950FC069857A856C197D090684F785C7
:101EB000E02D73010B851C859601A4018B899C89FB
:101EC0000995AB89BC89ED91FC9111970688F7893A
:101ED000E02DCD010995EB89FC89248584819581CC
:101EE000F6E02F9F800D911D1124AB89BC891596BA
:101EF0009C938E93149781E090E064960FB6F894CB
:101F0000DEBF0FBECDBFDF91CF911F910F91FF902C
:101F1000EF90DF90CF90BF90AF909F908F907F9089
:101F20006F905F904F903F902F9008956F927F92A7
:101F30008F929F92AF92BF92CF92DF92EF92FF92D9
:101F40000F931F93CF93DF93EC014B015A0169016B
:101F50003801E881F9810284F385E02D0995E88153
:101F6000F9810288F389E02D87019601A501B4016A
:101F7000CE010995A501460D571D41505109E88133
:101F8000F9810288F389E02D9601B401CE0109950B
:101F9000E881F9810088F189E02D9301A501B40160
:101FA000CE010995C80CD91CB60161507109E881B0
:101FB000F9810088F189E02D9301A501CE010995F1
:101FC000E881F9810688F789E02DCE01DF91CF9174
:101FD0001F910F91FF90EF90DF90CF90BF90AF9047
:101FE0009F908F907F906F9009948F929F92AF9265
:101FF000BF92CF92DF92EF92FF920F931F93CF93F6
:10200000DF934C016B015A01E901DC01ED91FC9178
:102010006217730781F40417150724F48B2D5801F8
:10202000042F182F0A191B0998012F5F3F4F048CAA
:10203000F58DE02D12C04017510709F52617370717
:1020400024F48D2D6901C62FD82F9E012C193D092E
:102050002F5F3F4F068CF78DE02D8701A501B6015C
:10206000C4010995DF91CF911F910F91FF90EF90DF
:10207000DF90CF90BF90AF909F908F900895028493
:10208000F385E02D0995D401ED91FC910488F58943
:10209000E02D9E01A501B601C4010995D401ED9181
:1020A000FC910688F789E02DC401DF91CF911F9143
:1020B0000F91FF90EF90DF90CF90BF90AF909F90E7
:1020C0008F900994EF92FF920F931F93DC01ED9193
:1020D000FC9100A0F1A1E02D7B0100E810E020E8D8
:1020E00030E040E050E060E070E009951F910F9112
:1020F000FF90EF9008954F925F926F927F928F9230
:102100009F92AF92BF92CF92DF92EF92FF920F9386
:102110001F93CF93DF936C012B015A0139014801C2
:10212000DC01ED91FC910284F385E02D0995E2013B
:10213000640C751CD601ED91FC91C615D7055CF4B5
:102140000088F189E02D87019401A501BE01C60137
:1021500009952196EFCF0688F789E02DC601DF911A
:10216000CF911F910F91FF90EF90DF90CF90BF9094
:10217000AF909F908F907F906F905F904F90099459
:102180008F929F92AF92BF92CF92DF92EF92FF9287
:102190000F931F93CF93DF93EC015B014A01690119
:1021A000E881F9810284F385E02D099595012C0DD4
:1021B0003D1D21503109E881F9810488F589E02D20
:1021C00078018401A401B501CE010995E881F98166
:1021D0000688F789E02DCE01DF91CF911F910F91F5
:1021E000FF90EF90DF90CF90BF90AF909F908F9037
:1021F00009948F929F92AF92BF92CF92DF92EF920B
:10220000FF920F931F93CF93DF93EC015B014A0181
:1022100069017801E881F9810284F385E02D09954F
:10222000C80CD91C860101501109E881F981048884
:10223000F589E02D9501A401B501CE010995E8814C
:10224000F9810688F789E02DCE01DF91CF911F91AA
:102250000F91FF90EF90DF90CF90BF90AF909F9045
:102260008F900994EF92FF920F931F93DC01ED91F1
:10227000FC9100A0F1A1E02D09951F910F91FF9015
:10228000EF9008950F931F93DC01ED91FC91068C64
:10229000F78DE02D09951F910F9108950F931F93CE
:1022A000DC01ED91FC91048CF58DE02D09951F91D9
:1022B0000F910895DC01ED91FC910084F185E02DF2
:1022C00009940E941B37362F90E0FC01E856FE4F20
:1022D0004491FC01E55CF54E2491FC01ED5DF54E69
:1022E0008491882309F44EC04423C1F150E0FA01DF
:1022F0003197ED30F10590F5E65AFF4F0C94D93542
:10230000909180009F7703C0909180009F7D909373
:10231000800024C094B59F7702C094B59F7D94BD82
:102320001DC09091B0009F7703C09091B0009F7D39
:102330009093B00013C0909190009F7703C090914C
:1023400090009F7D9093900009C09091A0009F778E
:1023500003C09091A0009F7D9093A000E82FF0E033
:10236000EE0FFF1FE55FF54EA591B4919FB7F8946E
:10237000311104C08C912095282302C0EC912E2BA2
:102380002C939FBF08959FB7F89440914D025091B0
:102390004E0260914F027091500286B5A89B06C014
:1023A0008F3F21F04F5F5F4F6F4F7F4F9FBF762F63
:1023B000652F542F44279A01AB01280F311D411D71
:1023C000511DA3E0B0E00E94FE3008958F929F92CD
:1023D000AF92BF92CF92DF92EF92FF926B017C019E
:1023E0000E94C3114B015C01C114D104E104F1044A
:1023F000F1F00E94C311DC01CB0188199909AA09E7
:10240000BB09883E9340A105B10570F321E0C21AD3
:10241000D108E108F10888EE880E83E0981EA11C1F
:10242000B11CC114D104E104F10419F7DDCFFF9010
:10243000EF90DF90CF90BF90AF909F908F900895D6
:102440002FB7F8946091490270914A0280914B0233
:1024500090914C022FBF08951F920F920FB60F92CA
:1024600011242F933F938F939F93AF93BF938091AA
:10247000490290914A02A0914B02B0914C023091D6
:10248000480226E6230F2D3728F029EE230F019668
:10249000A11DB11D209348028093490290934A02E6
:1024A000A0934B02B0934C0280914D0290914E024A
:1024B000A0914F02B09150020196A11DB11D8093D1
:1024C0004D0290934E02A0934F02B0935002BF91E1
:1024D000AF919F918F913F912F910F900FBE0F90D1
:1024E0001F9018951F920F920FB60F9211242F93E1
:1024F0003F934F935F936F937F938F939F93AF938C
:10250000BF93EF93FF93E0910201F09103010995CE
:10251000FF91EF91BF91AF919F918F917F916F91BB
:102520005F914F913F912F910F900FBE0F901F9091
:1025300018951F920F920FB60F9211242F933F936D
:102540004F935F936F937F938F939F93AF93BF93BB
:10255000EF93FF93E0910001F09101010995FF9144
:10256000EF91BF91AF919F918F917F916F915F910B
:102570004F913F912F910F900FBE0F901F90189584
:102580001F920F920FB60F9211242F933F934F93E8
:102590005F936F937F938F939F93AF93BF93EF93CB
:1025A000FF938091B900887F803609F49CC068F55C
:1025B000883209F45BC090F4803109F454C038F4D7
:1025C000882309F4F2C0883009F44DC0F2C0883184
:1025D00009F44CC0803209F45DC0EBC0803409F4CA
:1025E00068C048F4803309F455C0883309F0E1C06D
:1025F0008093C302D4C0803509F44FC0883509F4F4
:102600005DC0883409F0D5C0D2C0883909F4C3C090
:10261000A8F4883709F467C038F4883609F463C031
:10262000803709F460C0C5C0883809F4B4C0803967
:1026300009F45FC0803809F0BCC05BC0803B09F47E
:1026400084C038F4803A09F466C0883A09F47DC041
:10265000B0C0803C09F4A3C0883C09F4A0C0883B0A
:1026600009F486C0A6C08091C00210C09091C20239
:102670008091C102981770F5E091C20281E08E0F3F
:102680008093C202F0E0E156FD4F80818093BB0051
:1026900085EC82C08093C3028AC0E091C20281E0CF
:1026A0008E0F8093C2028091BB00F0E0E156FD4F97
:1026B00080839091C2028091C1026AC0E091C202FF
:1026C00081E08E0F8093C2028091BB00F0E0E15662
:1026D000FD4F80838091C402811169C081E08093A5
:1026E000BF0284EA5DC083E08093C5021092470276
:1026F000CFCF80914702803208F04DC0E091470271
:1027000081E08E0F809347028091BB00F0E0E95D8D
:10271000FD4F8083BDCF85EC8093BC001092C50235
:1027200080914702803230F4E0914702F0E0E95DA9
:10273000FD4F10826091470270E087E292E0E0E096
:10274000F0E009951092470234C084E08093C502FE
:102750001092260210922502E0E0F0E009958091A7
:102760002502811105C081E08093250210920502A7
:10277000E091260281E08E0F80932602F0E0EB5F6D
:10278000FD4F80818093BB009091260280912502AD
:10279000981708F47DCF85E88093BC000AC085ECCB
:1027A0008093BC001092C50204C01092C3020E9424
:1027B000560DFF91EF91BF91AF919F918F917F91B6
:1027C0006F915F914F913F912F910F900FBE0F909E
:1027D0001F901895AF92BF92CF92DF92EF92FF9227
:1027E0000F931F93CF93DF93EC018C015C018CE07E
:1027F000A80EB11CC12CD12C7601F8016191719108
:10280000819191918F019B01AC010E94AC339B019E
:10281000AC01C701B6010E943B316B017C01A016DF
:10282000B10659F70E946F346B017C019B01AC012A
:10283000688179818A819B810E941E3268837983B5
:102840008A839B83A70196016C817D818E819F8104
:102850000E941E326C837D838E839F83A701960125
:10286000688579858A859B850E941E32688779876D
:102870008A879B87DF91CF911F910F91FF90EF90F7
:10288000DF90CF90BF90AF9008958CB58F7B8CBDBB
:102890002B9A2D9A2D988CB580648CBD0895DC01FF
:1028A0005D96ED91FC915E97908193968C918095C9
:1028B000892380830895DC015D96ED91FC915E97FC
:1028C000908193968C91892B808308958EBD000012
:1028D0000DB407FEFDCF8EB508951F93CF93DF9300
:1028E000EC01162F0E944F14CE010E944514812F37
:1028F0000E946614CE01DF91CF911F910C945B145E
:102900001F93CF93DF93EC01162F0E944F148CB5C9
:102910008F7B8CBD2B982D9A2D988CB580648CBDA7
:10292000812F0E946614CE01DF91CF911F910C94EC
:102930005B14611102C060E201C061E20C9480147A
:102940001F93CF93DF93EC01162F66E30E94801450
:102950001D871130B1F068F01230D9F0133021F535
:1029600068E6CE010E946D148D89888F8E89825011
:102970001AC068ECCE010E946D148D898F8B8E89F0
:1029800010C068EACE010E946D148D89888F8E89EF
:102990000AC06CE0CE010E946D148D898F8B8E89E8
:1029A0008250888F01C08F8BDF91CF911F91089546
:1029B000EF92FF920F931F93CF93DF93EC01E62EDC
:1029C000142FF22E6AE20E94801460E0CE010E9471
:1029D0006D146F896E0DCE010E946D1460E0CE0102
:1029E0000E946D146F896F0DCE010E946D146BE211
:1029F000CE010E94801460E0CE010E946D14688DAB
:102A0000610FCE010E946D1460E0CE010E946D1432
:102A1000688D600FCE010E946D146CE2CE01DF91D3
:102A2000CF911F910F91FF90EF900C948014CF9253
:102A3000DF92EF92FF920F931F93CF93DF936C017E
:102A4000D22FC02F822F90E0860F911D81389105E3
:102A500014F0D0E8D61B8C2F90E0840F911D8138A4
:102A6000910514F0C0E8C41B0FEF040F0C0F2FEFFB
:102A7000260F2D0FC6010E94D814C6010E944F14C4
:102A8000CC2399F01D2F112371F0C6010E9445142B
:102A90008F2D0E946614C6010E9445148E2D0E943F
:102AA00066141150F0CFC150EBCFC601DF91CF912A
:102AB0001F910F91FF90EF90DF90CF900C945B14DB
:102AC000EF92FF920F937B0100E820E840E060E086
:102AD0000E9417150F91FF90EF900895FF920F93AA
:102AE0001F93CF93DF936038710518F54038510577
:102AF00000F5F32E122FEC0101E0040F21E0260F68
:102B00000E94D814CE010E944F14CE010E94451499
:102B10008F2D0E946614CE010E944514812F0E94C1
:102B20006614CE01DF91CF911F910F91FF900C940D
:102B30005B14DF91CF911F910F91FF9008952F9219
:102B40003F924F925F926F927F928F929F92AF923D
:102B5000BF92CF92DF92EF92FF920F931F93CF938A
:102B6000DF9300D000D000D0CDB7DEB72C017E833C
:102B70006D836A015901C801FC82EB824801841A05
:102B8000950A97FE03C091948194910835012D8197
:102B90003E81621A730A77FE03C0719461947108D2
:102BA000681479045CF43A2D2B2D5C01832F922F4D
:102BB0003D812E81DE82CD82C32ED22EAD81BE819B
:102BC000AA16BB065CF43C2D2D2D6C01832F922F91
:102BD0003D812E81BE82AD82A32EB22E85012D8134
:102BE0003E81021B130B1C012C183D0837FE03C04D
:102BF000319421943108780117FF03C03FEFE31AA5
:102C0000F30AF594E794C816D9062CF08FEF9FEFDE
:102C10009A83898304C0A1E0B0E0BA83A9832D819F
:102C20003E81A216B30624F1D201ED91FC910484F9
:102C3000F585E02D2B813C816814790424F44D81C5
:102C40005E81B60103C0A6016D817E81C201099536
:102C5000E218F308F7FE06C029813A81C20ED31E9E
:102C6000E00EF11E8D819E8101969E838D83D7CFCC
:102C700026960FB6F894DEBF0FBECDBFDF91CF9181
:102C80001F910F91FF90EF90DF90CF90BF90AF908A
:102C90009F908F907F906F905F904F903F902F907C
:102CA0000895089580E090E00895F8944B9928C025
:102CB00080915602811126C0E091CD01F0E0EE0F27
:102CC000FF1FE35AFC4F208131818091D001909108
:102CD000D10137FF0AC00196803127E2920734F014
:102CE0001092D1011092D00105C001979093D101AB
:102CF0008093D00181E08093D2018093560202C07C
:102D000010925602789408958091D6014A9912C083
:102D1000811118C08091D4019091D501049790F051
:102D200081E08093D7018093D6011092E103109245
:102D3000E00304C0882331F01092D6011092D5012F
:102D40001092D4010895CF92DF92EF92FF920F93E9
:102D50001F93EEE2F3E08CE290E0958384838EE3B0
:102D600090E097838683E091C401F091C501808152
:102D700091810E943C1E84EA91E00E94E41DC09073
:102D80005702D09058020D2C000CEE08FF08E0917D
:102D9000C401F091C50120813181C901330FAA0B13
:102DA000BB0B9C01AD012C193D094E095F09A2E541
:102DB000B0E00E94FE302091590230915A02890100
:102DC000330F220B330BA90198012C193D094E0931
:102DD0005F090E94DF30CC24DD24C21AD30AE3E568
:102DE000F3E0E080F1800281138123E042E56EE4AC
:102DF00087E10E946C1C1F910F91FF90EF90DF9074
:102E0000CF900895CF92DF92EF92FF920F931F938E
:102E1000F8944B992AC080915602811128C00E94D3
:102E2000C31100915202109153022091540230912B
:102E300055026B017C01C01AD10AE20AF30AC09262
:102E4000C701D092C801E092C901F092CA01609313
:102E5000520270935302809354029093550281E082
:102E60008093D2018093560202C010925602789449
:102E70001F910F91FF90EF90DF90CF9008950F93E7
:102E80001F93CF93DF93F999FECF80E090E00E94EB
:102E9000B730823031F0DF91CF911F910F910C94B8
:102EA0006A1781E090E00E94B7308093C00103E58B
:102EB00013E0C2E0D0E0CE010E94B730F801819368
:102EC0008F012196CC33D105B1F7DF91CF911F91BE
:102ED0000F910895EF92FF920F931F93CF93DF937B
:102EE000CDB7DEB7EA970FB6F894DEBF0FBECDBF01
:102EF000F999FECF62E080E090E00E94D13063E07B
:102F000081E090E00E94D1308FEF9FE39A83898324
:102F100029E531E03C832B839E838D8380EA9FEFFC
:102F200098878F8380E098EF9A8789878EE190E079
:102F30009C878B878EE591E09E878D87188A1F86F8
:102F40001A8A198A1C8A1B8A1E8A1D8A188E81E099
:102F50008C8F1B8E8D8F198E8E8F18A21F8E1A8EBE
:102F600019A21AA21BA21CA21DA21EA21FA218A671
:102F700019A61AA61BA61CA68DA78EA71FA618AA5F
:102F800019AA1AAA80E090E0A0E8BFE38BAB9CAB43
:102F9000ADABBEAB1FAA18AE19AE1AAECE010196EC
:102FA0007C0102E010E0F70161917F01C8010E94FD
:102FB000D1300F5F1F4F0C331105A9F7EA960FB6FA
:102FC000F894DEBF0FBECDBFDF91CF911F910F915F
:102FD000FF90EF900C943F17EF92FF920F931F9387
:102FE000CF93DF939093C5018093C40170935802EF
:102FF0006093570250935A02409359021092C201B3
:103000008091D3018093BF0189E08093D301C3E510
:10301000D3E0E880F98008E210E028E530E04CE2F7
:1030200050E064E170E08EE293E00E94960FEA8047
:10303000FB8006E226E54DE265E18EE293E00E9428
:103040001715EEE2F3E08EE190E09583848380E350
:1030500090E0978386838FEF99E10E94511CE8806E
:10306000F98005E010E024E530E04DE450E066E151
:1030700070E08EE293E00E94960FDF91CF911F9156
:103080000F91FF90EF900C94A3160F931F938CE079
:1030900090E0909333038093320383E490E0909325
:1030A00035038093340382E080933A038091CC010E
:1030B000882319F08091CB0102C08091CD0190E06E
:1030C00001960E943C1E81E080933A0300915503D3
:1030D000109156038091CC01882329F0209153034D
:1030E0003091540301C0980146EF59E162E58CE04C
:1030F0000E94D71D1F910F9108951F93CF93DF93C7
:103100008093C001E82FF0E0E15BFE4F1081C12FFA
:10311000D0E085E00E94B81D209711F460E004C063
:10312000CF3FD10539F461E085E0DF91CF911F9168
:103130000C946311EDE9F1E0E4918E2F90E0FC0135
:103140003197ED30F10508F05FC0E959FF4F0C945D
:10315000D93584B5806884BD17BD5BC084B58062F5
:1031600084BD18BD56C08091800080688093800027
:10317000D0938900C09388004CC080918000806209
:1031800080938000D0938B00C0938A0042C08091CE
:10319000B00080688093B0001093B3003AC0809173
:1031A000B00080628093B0001093B40032C0809170
:1031B0009000806880939000D0939900C09398000D
:1031C00028C080919000806280939000D0939B00F3
:1031D000C0939A001EC08091A00080688093A000D8
:1031E0008091A0008F7B8093A000D093A900C09312
:1031F000A8000FC08091A00080628093A000D093AF
:10320000AB00C093AA0005C0C038D1050CF08BCF2D
:1032100085CFDF91CF911F910895CF92DF92EF92EA
:10322000FF920F931F930091550310915603811144
:103230000AC078010CE02CE346E662E28EE293E0FD
:103240000E94171536C02CE330E07901E81AF10826
:1032500080916E0390916D032091CE013091CF014A
:103260008823B9F0992319F0F194E194F10890E0E2
:10327000019762E471E0869FA001879F500D969FA1
:10328000500D11244C54574E66E682E20E94F91C00
:1032900010C0992329F0CC24DD24CE18DF0801C00A
:1032A0006701780189012CE04CE366E682E20E9426
:1032B0006C1C1F910F91FF90EF90DF90CF900895BD
:1032C000E091CD01F0E0EE0FFF1FE35AFC4F40818B
:1032D000518157FF0AC080915703909158039093F2
:1032E000CF018093CE0180E029C0A091D001B091A0
:1032F000D1011A161B06CCF42CE330E00E94DF3516
:103300009A01550F440B550B0E94DF30822F20315C
:1033100028F020915703309158030CC0273030F02B
:103320002091590330915A0305C080E020915B033E
:1033300030915C033093CF012093CE010C940D1992
:103340000F931F931092C2011092D3016091550305
:10335000709156038EE293E00E9460150091550330
:1033600010915603209153033091540342EB50E1E6
:1033700060E080E00E94D71D009155031091560334
:1033800020915303309154034EEA50E163E487E007
:103390000E94D71D009155031091560320915303AD
:1033A0003091540341EA50E165E78CE20E94D71D59
:1033B00080917F03882371F000915503109156038B
:1033C00020915B0330915C034CE454E063E48BE6B2
:1033D0000E94D71D1092C6010E94601981E080935F
:1033E000D2010E9445181092BE011F910F910895BD
:1033F000CF92DF92EF92FF920F93CF93DF93D82F6C
:10340000C62FE091D301F0E0EE0FFF1FED5CFE4F01
:10341000C080D180482F4295407F4F5F47FD0BC051
:10342000E0905503F09056030AE02EE669E08EE244
:1034300093E00E9417158AE090E090933303809305
:103440003203ED2FF0E0CF0144E0880F991F4A9539
:10345000E1F702969093350380933403EE0FFF1F3C
:10346000EC0DFD1D859194910E94511CE090530339
:10347000F090540380915503909156039093370335
:1034800080933603F0923903E09238034C2F429533
:10349000407F4F5F47FD07C00AE02EE669E08EE2FD
:1034A00093E00E9417158AE090E090933303809395
:1034B00032036C2F70E0CB0124E0880F991F2A950E
:1034C000E1F702969093350380933403FB01EE0FEE
:1034D000FF1FEC0DFD1D859194910E94511C809160
:1034E0005503909156032091530330915403309328
:1034F0003703209336039093390380933803DF9189
:10350000CF910F91FF90EF90DF90CF9008956F9241
:103510007F928F929F92AF92BF92CF92DF92EF9263
:10352000FF920F931F93CF93DF93C82E962E809315
:10353000D30160915503709156038EE293E00E948F
:1035400060158C2D90E0880F991FFC01ED5EFE4FF9
:103550008080FC01ED5CFE4FA080B180C0E0D0E037
:10356000D12C4AE0642E712CD81408F051C0E090A0
:103570005303F0905403D9101BC0C7FD08C00CE0E2
:1035800020E74C2F68E08EE293E00E9417158091AF
:103590005303909154032091550330915603309377
:1035A00037032093360390933903809338030BC07D
:1035B0000CE010E020E730E0AE0168E070E08EE261
:1035C00093E00E94960F7092330360923203CE0113
:1035D00002969093350380933403F501859194917D
:1035E0000E94511C809155039091560320915303E2
:1035F000309154033093370320933603909339036B
:1036000080933803D394609682E0A80EB11CACCFAF
:103610009092C10181E08093C20183E0C81221C071
:103620002091B80180E090E0922F990F990F990FA7
:10363000E090BA01F090BB0125E0EE0CFF1C2A954A
:10364000E1F7E82AF92A8091BC019091BD01E82AAE
:10365000F92A0AE12AE140E663E38EE293E00E9460
:103660001715DF91CF911F910F91FF90EF90DF9091
:10367000CF90BF90AF909F908F907F906F90089564
:10368000E091CD01F0E0EE0FFF1FE35AFC4F808187
:10369000918197FF02C080E090E09093D1018093E8
:1036A000D00182E08093D20108951F920F920FB64D
:1036B0000F9211240F900FBE0F901F9018951F921C
:1036C0000F920FB60F9211248F939F938091DA017E
:1036D000309912C0811118C08091D8019091D90100
:1036E000049790F081E08093DB018093DA011092DF
:1036F000E7011092E60104C0882331F01092DA014C
:103700001092D9011092D8018091EC01639912C0F6
:10371000811118C08091E0019091E101049790F02F
:1037200081E08093ED018093EC011092E50110920D
:10373000E40104C0882331F01092EC011092E10101
:103740001092E0018091DE01319912C0811118C000
:103750008091DC019091DD01049790F081E08093ED
:10376000DF018093DE011092E9011092E80104C0AC
:10377000882331F01092DE011092DD011092DC01FD
:103780009F918F910F900FBE0F901F9018951F92D1
:103790000F920FB60F9211242F933F934F935F9385
:1037A0006F937F938F939F93AF93BF93EF93FF9309
:1037B0000E945F1BFF91EF91BF91AF919F918F91FD
:1037C0007F916F915F914F913F912F910F900FBE1D
:1037D0000F901F901895E091C401F091C5013097AA
:1037E00009F45EC0823009F45BC0909151029436B6
:1037F00060F1608171819091C301492F50E0833065
:1038000019F0519541955109209157023091580274
:10381000460F571F421753078CF0292F30E0833093
:1038200019F03195219531098091590290915A02F0
:10383000260F371F821793070CF49C0131832083D6
:103840000E94A3161092510205C08091EE01980FBC
:10385000909351028091E4019091E501893E93405B
:1038600020F08091EC0181110BC08091E8019091D2
:10387000E901893E9340A0F08091DE01882381F028
:103880008091590290915A0220915702309158022A
:10389000821B930B853691051CF08AE08093C3014F
:1038A00008950F931F93CF93DF938C01C0E0D0E076
:1038B000F801EC0FFD1F6491662341F08EE293E066
:1038C0000E94060E892B11F02196F2CFCE01DF91D6
:1038D000CF911F910F9108952F923F924F925F9237
:1038E0006F927F928F929F92AF92BF92CF92DF9210
:1038F000EF92FF920F931F93CF93DF9300D000D0EE
:1039000000D0CDB7DEB74C83B22E09831A83EB8289
:10391000AF2C0FEF020F060F242F2150280F462F38
:10392000682F8EE293E00E94D8148EE293E00E940A
:103930004F14212C9C81892F90E09E838D834B2CEA
:10394000512C3C016C187D08EE24FF24EC18FD0876
:10395000B21499F100E010E0822C912C8D819E81AF
:103960000817190741F1D7FE04C00E151F0524F4EE
:1039700008C0061517052CF43324339484149504D9
:103980000CF0312C8EE293E00E944514311002C0FD
:103990008A2D01C08A810E9466148EE293E00E9403
:1039A0004514311002C08B8101C089810E946614C8
:1039B0000F5F1F4FD3CF2394CBCF8EE293E0269699
:1039C0000FB6F894DEBF0FBECDBFDF91CF911F9130
:1039D0000F91FF90EF90DF90CF90BF90AF909F90AE
:1039E0008F907F906F905F904F903F902F900C94AE
:1039F0005B142F923F924F925F926F927F928F92C1
:103A00009F92AF92BF92CF92DF92EF92FF920F936D
:103A10001F93CF93DF93CDB7DEB72A970FB6F894F5
:103A2000DEBF0FBECDBF6A01322E3E830F831887E3
:103A30009701FA01F4903196149137FF04C0722E69
:103A40007194B12C02C0B22E712C0FEF060F010F32
:103A50002FEF280F2F0D462F682F8EE293E00E9444
:103A6000D8142F2D30E03A872987812F90E09A8350
:103A70008983F19EF0011124FC83EB838EE293E0B5
:103A80000E944F1400E010E092E0E92EF12C512C3E
:103A9000612C412C89849A848B18910829853A8558
:103AA000215031093A8729878B819C8180179107A2
:103AB00009F442C051100AC0F601EE0DFF1D9491A9
:103AC0009D83EFEFEE1AFE0A80E8582EA42CB12C4D
:103AD0008D81852171F0471460F0A814B9044CF46D
:103AE000862D90E02224239429813A81821793071E
:103AF0000CF0212C8EE293E00E944514211002C0AC
:103B0000888501C08E810E9466148EE293E00E9437
:103B10004514211002C08F8101C0832D8EBD5694A3
:103B200089859A85A816B90614F4439402C0639453
:103B3000412C0F5F1F4FB8CF8EE293E02A960FB64D
:103B4000F894DEBF0FBECDBFDF91CF911F910F91D3
:103B5000FF90EF90DF90CF90BF90AF909F908F90AD
:103B60007F906F905F904F903F902F900C945B14DC
:103B700090E0FC01E55CF54E2491FC01ED5DF54E15
:103B80008491882399F090E0880F991FFC01E95EE9
:103B9000F54EA591B491FC01E55FF54E85919491A8
:103BA0008FB7F894EC91E22BEC938FBF0895EF92CE
:103BB000FF920F931F93E12CF12C0E94F91C1F918F
:103BC0000F91FF90EF900895009769F0FC0101902C
:103BD0000020E9F73197AF01481B590BBC018EE279
:103BE00093E00C94081F80E090E008958F929F92DC
:103BF000AF92BF920F931F93CF93DF93CDB7DEB7F2
:103C0000A1970FB6F894DEBF0FBECDBF19A2423008
:103C100008F44AE08E010F5D1F4F842E912CA12CD9
:103C2000B12CA50194010E940931E62FB901CA0106
:103C300001501109EA3014F4E05D01C0E95CD801DB
:103C4000EC93232B242B252B61F7C8010E94E41D44
:103C5000A1960FB6F894DEBF0FBECDBFDF91CF9116
:103C60001F910F91BF90AF909F908F900895682FF4
:103C70008EE293E00C94060ECF92DF92EF92FF92C9
:103C8000CF93DF936C01990FEE08FF08F7FE17C082
:103C90008DE20E94371EEC0166277727CB016C1955
:103CA0007D098E099F094AE00E94F61D8C0F9D1F19
:103CB000DF91CF91FF90EF90DF90CF9008954AE091
:103CC000C701B601DF91CF91FF90EF90DF90CF90C9
:103CD0000C94F61D9091C5029111FCCF91E0909348
:103CE000C5029093C4022FEF2093C3021092C20228
:103CF000260F2093C1029093C0029091C002880FBA
:103D0000892B8093C0028091BF02813061F41092B0
:103D1000BF028091C0028093BB008091BC0083FDF4
:103D2000F8CF85EC01C085EE8093BC008091C50280
:103D30008130E1F38091C202861710F46091C202D3
:103D4000AFE9B2E0EFE7F2E080E0861721F09D9165
:103D500091938F5FFACF089530917E02313208F04F
:103D60004BC08091C5028111FCCF90917D0222E071
:103D70002093C50221E02093C4022FEF2093C302B9
:103D80001092C2023093C102EDE5F2E0AFE9B2E079
:103D900020E0321721F041914D932F5FFACF10921E
:103DA000C0022091C002990F922B9093C002909173
:103DB000BF02913061F41092BF029091C0029093C3
:103DC000BB009091BC0093FDF8CF95EC01C095EE3F
:103DD0009093BC009091C5029230E1F39091C302A0
:103DE0009F3F79F08091C302803241F08091C302FD
:103DF000803331F084E005C081E003C082E001C07F
:103E000083E010925C0210927E0210925B02089591
:103E1000CF92DF92EF92FF920F931F93CF93DF9396
:103E20006C017A018B01C0E0D0E0CE15DF0581F096
:103E3000D8016D918D01D601ED91FC910190F08139
:103E4000E02DC6010995892B11F02196EECF7E0158
:103E5000C701DF91CF911F910F91FF90EF90DF90FD
:103E6000CF900895682F86EC92E00C94D20DBF920B
:103E7000CF92DF92EF92FF920F931F93CF93DF9336
:103E8000C82F811102C0DEE101C0D9E181E0809339
:103E90005B02D0937D0210925C0210927E02C111EF
:103EA00002C068EE01C068EA86EC92E00E94D20D82
:103EB0000E94AC1E66E08D2F0E946A1E109299032C
:103EC0008093980386EC92E00E94890D6C0186EC49
:103ED00092E00E94890D60E070E0782FC62AD72A10
:103EE00086EC92E00E94890D7C0186EC92E00E94B3
:103EF000890D60E070E0782FE62AF72A86EC92E0E0
:103F00000E94890D8C0186EC92E00E94890DB82EEA
:103F10008CE0C89FE0011124C25FDC4FB601DD0CCC
:103F2000880B990B0E94C832688379838A839B83AC
:103F3000B701FF0C880B990B0E94C8326C837D83FC
:103F40008E839F8360E070E07B2D602B712B072EAA
:103F5000000C880B990B0E94C832688779878A8782
:103F60009B87DF91CF911F910F91FF90EF90DF9092
:103F7000CF90BF9008958F929F92AF92BF92CF92B1
:103F8000DF92EF92FF920F931F93CF93DF936B011A
:103F90007C01142F9B01AC010E94B334882319F0DB
:103FA00089EA91E027C046015701E894B7F82FEF5E
:103FB0003FEF4FE75FE7C501B4010E94B3348111C1
:103FC0000DC02FEF3FEF4FE75FE7C501B4010E943F
:103FD000193218161CF48DEA91E00CC02FEF3FEF58
:103FE0004FE75FE4C701B6010E949F33181684F4BF
:103FF00081EB91E0DF91CF911F910F91FF90EF90B6
:10400000DF90CF90BF90AF909F908F900C94E41D65
:104010002FEF3FEF4FE75FECC701B6010E94193267
:1040200087FDE6CF20E030E0A901C701B6010E947C
:10403000193287FF09C08DE20E94371EEC01F7FAA2
:10404000F094F7F8F09402C0C0E0D0E000E060E047
:1040500070E080E09FE3101741F020E030E040E2A4
:1040600051E40E941E320F5FF6CFA70196010E9415
:104070003B316B017C010E9497324B015C014AE0AD
:104080000E94F61DC80FD91F1123A9F1C501B40163
:104090000E94C6329B01AC01C701B6010E943A31B1
:1040A0006B017C018EE20E94371EC80FD91F20E0F1
:1040B00030E040E251E4C701B6010E94AC334B014D
:1040C0005C010E9497326B01E12CF12C4AE0C701A0
:1040D000B6010E94F61DC80FD91FC701B6010E9484
:1040E000C6329B01AC01C501B4010E943A316B019B
:1040F0007C011150E1F6CE01DF91CF911F910F911C
:10410000FF90EF90DF90CF90BF90AF909F908F90F7
:104110000895E9E6F0E08081837F84608083E99AF6
:104120000895CF93DF93EB0121E020935B0229E117
:1041300020937D0210925C0210927E020E94321F38
:10414000CE010E94321FDF91CF910C94AC1ECF9311
:10415000DF93EB0121E020935B022EE120937D02AF
:1041600010925C0210927E020E94321FCE010E94C9
:10417000321FDF91CF910C94AC1ECF93C62F91E0EC
:1041800090935B029FE690937D0210925C021092E6
:104190007E02682F86EC92E00E94D20D6C2F86EC96
:1041A00092E00E94D20DCF910C94AC1E91E09093BE
:1041B0005B029FE690937D0210925C0210927E0259
:1041C000682F86EC92E00E94D20D0E94AC1E90E017
:1041D000909397038093960361E08FE60E946A1E96
:1041E000109299038093980386EC92E00E94890DC7
:1041F0000895CF93DF9342E00E94BB1FEC0185EB53
:1042000091E00E94E41D8C0F9D1FDF91CF910895D6
:10421000CF93DF93CDB7DEB7CC54D1090FB6F89466
:10422000DEBF0FBECDBF789484B5826084BD84B5F7
:10423000816084BD85B5826085BD85B5816085BDA1
:1042400080916E00816080936E0010928100809159
:1042500081008260809381008091810081608093E1
:104260008100809180008160809380008091B10006
:1042700084608093B1008091B00081608093B00031
:104280008091910082608093910080919100816083
:104290008093910080919000816080939000809144
:1042A000A10082608093A1008091A1008160809331
:1042B000A1008091A00081608093A00080917A008D
:1042C000846080937A0080917A00826080937A0083
:1042D00080917A00816080937A0080917A00806872
:1042E00080937A001092C1000E943F1783E0809370
:1042F000040185E00E94B81D84B1886284B985E01C
:104300000E94B81D60E085E00E9463111092450391
:104310001092460380913F030E94B81D80913E0396
:104320000E94B81D80913E03082E000C990BFC01E1
:10433000ED5DF54EE491F0E0EE0FFF1FE55FF54E09
:104340002591349130934C0320934B0320913F03EC
:10435000022E000C330BF901ED5DF54EE491F0E017
:10436000EE0FFF1FE55FF54E4591549150934E03BC
:1043700040934D03FC01E55CF54EE491E09351035D
:10438000F901E55CF54EE491E09352031FB7F89410
:104390008091F201811124C0EDE2FAE18491E5E41B
:1043A000FAE19491E82FF0E0EE0FFF1FE95EF54E81
:1043B000A591B491EC91E92321F461E08AE00E9497
:1043C00063118AE00E94B81D8CB580618CBD8CB5EC
:1043D00080648CBD8DE00E94B81D8BE00E94B81DEA
:1043E0008091F2018F5F8093F2011FBF8CB58C7FAB
:1043F0008CBD8DB58E7F8DBD8CB5837F8CBD82E0ED
:104400008093430383E080934403E0EBF1E0D49096
:1044100071EBE72E71E0F72EDD2009F437C0F701CC
:1044200064918EE293E00E9480145701F2E0AF0E97
:10443000B11CF70131961491212F2078C22E1F77DD
:104440007501012F015050F0F70164918EE293E065
:104450000E946D14FFEFEF1AFF0AF4CF7501E10E11
:10446000F11CC11002C0DA94D7CF87010F5F1F4F34
:10447000F701649170E06F3F710511F464EF71E032
:1044800080E090E00E94E6117801EDCF6AE070E0F4
:1044900080E090E00E94E6118DB581608DBD8CB505
:1044A0008C7F8CBD60916A038EE293E00E94A01421
:1044B00062E370E080E090E00E94E61160915503B5
:1044C000709156038EE293E00E94601562E370E003
:1044D00080E090E00E94E6118091C0010E947D186A
:1044E000809168008A608093680080916C0087608A
:1044F00080936C0088E080937300E091CD01F0E040
:10450000EE0FFF1FE35AFC4F8081918197FF02C09D
:1045100080E090E09093D1018093D001739A88B1AC
:10452000836088B95B9A85E596E190930301809357
:1045300002010E9489205A9A84E896E19093010131
:1045400080930001809169008C7F81608093690075
:10455000E89A109299031092980310925C021092BC
:104560007E021092C50281E08093C4021092BF02C5
:1045700061E082E10E94631161E083E10E946311C6
:104580008091B9008E7F8093B9008091B9008D7FB2
:104590008093B9008CE58093B80085E48093BC00DB
:1045A00080E00E94D62087FD04C060E880E00E9481
:1045B000BD2082E00E94D62086FF05C0682F6F7B59
:1045C00082E00E94BD2083E00E94D620682F6860B0
:1045D00083E00E94BD206091710388E00E94BD20AD
:1045E00060915503709156038EE293E00E9460152E
:1045F00080915503909156032091530330915403B9
:104600003093370320933603909339038093380314
:104610000E94A01981E08093D20160E870E080E6FA
:1046200090E00E94A72060E170E082E690E00E94A6
:10463000A72067E270E080E290E00E94912068E8A5
:1046400070E083E290E00E9491208CE0E3E7F3E0E9
:10465000A2E0B3E001900D928A95E1F778949E0173
:10466000215F3F4F3AAB29AB0E942012009101021B
:104670001091020220910302309104026B017C012F
:10468000C01AD10AE20AF30AC092EE01D092EF01F9
:10469000E092F001F092F101609301027093020246
:1046A00080930302909304028091ED01882309F422
:1046B0005EC08091C4019091C501892B19F081E001
:1046C0008093C301E091D301E11132C08091CC010C
:1046D000882309F18091CB01882311F0815001C01A
:1046E00085E0E82FF0E0EE0FFF1FE35AFC4F20813A
:1046F0003181232B89F38093CB0181E080930002E9
:104700000E9420126093F8017093F9018093FA01DE
:104710009093FB012AC08091C001282F30E0223005
:10472000310514F0EFEFE80F8E2F0E947D181DC0A9
:104730008091C2018823C9F08091C101282F30E007
:10474000F0E0EE0FFF1FED5EFE4F408151814150C2
:1047500051092417350748F461E0680F0E94F819E1
:104760008091C1018F5F8093C1011092ED01809112
:10477000EC01882389F02091EE013091EF018091C6
:10478000E4019091E501820F931F9093E5018093DE
:10479000E40181E00E94EB1B8091E0019091E10136
:1047A0008430910550F42091EE013091EF01820F99
:1047B000931F9093E1018093E0018091DF018823B2
:1047C00009F452C08091C4019091C501892B19F060
:1047D00081E08093C3018091D301811132C0809127
:1047E000CC01882309F18091CB01853010F48F5FD3
:1047F00001C080E0E82FF0E0EE0FFF1FE35AFC4F0E
:1048000020813181232B89F38093CB0181E0809338
:1048100000020E9420126093F8017093F9018093C6
:10482000FA019093FB011EC08091C001282F30E057
:104830002430310514F48F5F01C085E00E947D189B
:1048400011C08091C201882369F08091C101882341
:1048500049F06FEF680F0E94F8198091C1018150F3
:104860008093C1011092DF018091DE01882389F0DD
:104870002091EE013091EF018091E8019091E901E2
:10488000820F931F9093E9018093E80183E00E94D7
:10489000EB1B8091DC019091DD018430910550F497
:1048A0002091EE013091EF01820F931F9093DD0173
:1048B0008093DC018091DB01882309F4FFC38091A0
:1048C000C4019091C501009719F021E02093C30124
:1048D0002091D301222309F471C02A3009F089C044
:1048E0002091E6023091E7024091E8025091E902FE
:1048F0006091DA027091DB028091DC029091DD021E
:104900000E943B3120E030E040E05FE30E94AC33A6
:104910006B017C012091E2023091E3024091E402BC
:104920005091E5026091D6027091D7028091D80231
:104930009091D9020E943B3120E030E040E05FE3FB
:104940000E94AC334B015C012091DE023091DF020A
:104950004091E0025091E1026091D2027091D30245
:104960008091D4029091D5020E943B3120E030E04A
:1049700040E05FE30E94AC33609373037093740371
:1049800080937503909376038092770390927803D7
:10499000A0927903B0927A03C0927B03D0927C03F9
:1049A000E0927D03F0927E038CE0E3E7F3E0A2E087
:1049B000B3E001900D928A95E1F72FC38091CD016C
:1049C0008093CB0181E08093CC01809300020E9410
:1049D00020126093F8017093F9018093FA0190938B
:1049E000FB0180917003882309F466C30E94401B79
:1049F00063C32091C201222309F452C38091C101F3
:104A0000E091F501F091F601309729F08083109242
:104A1000F6011092F5019091D301973009F4FDC28F
:104A200038F4923009F4E2C2933009F4F9C209C0B3
:104A30009B3009F4E7C29D3009F4EFC2983009F4C5
:104A40001BC3382F2AE0929F300D11243F3209F406
:104A5000C1C208F05FC03F3009F4C9C020F53C3046
:104A600009F4B7C0C8F43A3009F49AC03B3009F0F1
:104A700023C360E082E00E94871A86E090E0909372
:104A800033038093320384E790E09093350380935F
:104A9000340387E992E0CAC03D3009F4A1C03E303A
:104AA00009F4EAC209C3383209F4B4C238F4303127
:104AB00009F4BFC0313109F4B0C2FEC2393209F481
:104AC0007AC2E82FF0E0EE0FFF1FE15BFC4FF0939E
:104AD000F401E093F30180819181292F2695269599
:104AE00026952093B8011092B9019C01207E377061
:104AF000B5E036952795BA95E1F73093BB01209341
:104B0000BA018F7199279093BD018093BC0160E039
:104B100083E0D0C2323409F445C170F53E3309F464
:104B2000ADC090F43C3309F475C23D3309F0C4C202
:104B300060916B0387E00E94871A8BE693E0909365
:104B4000F6018093F501B8C2609155037091560348
:104B5000303409F4BDC008F0D6C090916F0381E0F5
:104B6000892780936F0324E630E03093330320934A
:104B7000320322E330E0BAC0393709F422C138F4F5
:104B8000333409F41BC1383709F447C295C23B37A7
:104B900009F4C4C108F43FC13C3709F4C6C18CC252
:104BA000F999FECF03E5E02E03E0F02E02E010E0DD
:104BB000D7016D917D01C8010E94BF300F5F1F4F6B
:104BC0000C331105A9F76091710388E00E94BD20A4
:104BD000B5C147E150E060E070E084E993E05DC278
:104BE0004BE350E060E070E082E993E056C28BE076
:104BF0008093D30182E097E19093030180930201B7
:104C00000E94892060915503709156038EE293E0D3
:104C10000E946015109233031092320384E190E0F9
:104C2000909335038093340381E292E00E94511CFB
:104C300043C2F999FECF6091C00181E090E00E94EB
:104C4000BF308091530390915403209155033091CC
:104C500056033093370320933603909339038093A0
:104C6000380389E690E0909333038093320382E621
:104C700090E090933503809334034BC190916D0382
:104C800081E0892780936D0324E630E0309333037D
:104C90002093320322E230E0309335032093340333
:104CA0002091530330915403409155035091560382
:104CB00050933703409336033093390320933803DE
:104CC000811103C086E991E026C183E991E023C107
:104CD0009091700381E089278093700324E630E08F
:104CE000309333032093320322E430E030933503D2
:104CF000209334032091530330915403709337036E
:104D0000609336037CC08EE293E00E94601510929F
:104D1000330310923203109235031092340386E469
:104D200092E00E94511CC12C1EEFD12EEE24EA9479
:104D300016E4F12EC092DE02D092DF02E092E00291
:104D4000F092E102C092E202D092E302E092E40229
:104D5000F092E502C092E602D092E702E092E80209
:104D6000F092E90220E030E040E057EC2093D202DC
:104D70003093D3024093D4025093D5022093D602AD
:104D80003093D7024093D8025093D9022093DA028D
:104D90003093DB024093DC025093DD028AE0809383
:104DA000D3018AC1609180038DE00E94871A40E898
:104DB00053E05093F6014093F5017EC160E08CE032
:104DC00079C190917F0381E0892780937F0324E656
:104DD00030E0309333032093320322E130E030930C
:104DE00035032093340320915303309154034091B1
:104DF0005503509156035093370340933603309335
:104E0000390320933803811103C08DE991E083C0F9
:104E100089E991E080C081E00E94371F8CE0EAE1DF
:104E2000F3E0DE011D9601900D928A95E1F7CE0127
:104E30000D960E94EA1349885A886B887C888D8871
:104E40009E88AF88B88C20E030E0A9016D857E8512
:104E50008F8598890E94AC336B017C0120E030E0A3
:104E6000A901C301B2010E94AC336BAB7CAB8DAB2B
:104E70009EAB20E030E0A901C501B4010E94AC3333
:104E80009B01AC016BA97CA98DA99EA90E943A3116
:104E900069837A838B839C83A7019601C501B40142
:104EA0000E943A316D837E838F839887A30192019C
:104EB000C701B6010E943A3169877A878B879C8740
:104EC000CE0101960E94EA138CE0FE013196A1E822
:104ED000B3E001900D928A95E1F784E690E090931B
:104EE00033038093320382E290E090933503809302
:104EF00034038091530390915403209155033091D2
:104F000056033093370320933603909339038093ED
:104F1000380381EA91E00E94E41D3CC04FE750E075
:104F200060E87FEF81E793E0B8C08091BE018F5FBA
:104F30008093BE01863028F00E946A170E94A01953
:104F4000BBC084E690E0909333038093320382E405
:104F500090E09093350380933403809153039091B4
:104F60005403209155033091560330933703209317
:104F7000360390933903809338038EE30E94371EE3
:104F80009091BE0126E030E0D901A91BB109CD0105
:104F90000E943C1E8091550390915603209153032B
:104FA00030915403309337032093360390933903A1
:104FB0008093380381C060916A03633010F46F5F9F
:104FC00001C060E060936A038EE293E00E94A01447
:104FD00061E053C060916E0388E00E94871AEEE69C
:104FE000F3E0F093F601E093F50166C0882391F0B9
:104FF00090E0880F991F4FE057E26FEF7FEF855ADF
:105000009C4F4BC085E596E190930301809302018C
:105010000E94892060E081E04DC060E086E04AC0E7
:1050200081112DC0E091F301F091F4018091B8015C
:10503000880F880F880F2D968FAF2D972C961FAE57
:105040002C978091BA019091BB0175E0880F991F50
:105050007A95E1F72D96CEACDFAC2D978C299D2962
:105060002091BC013091BD01822B932B91838083D1
:105070001092F4011092F30160E084E01BC08230D2
:1050800019F04FE150E002C04FE350E090E0880F8C
:10509000991F60E070E08A549E4F0E94EC170CC08C
:1050A000892B51F01092C5011092C4016091C10189
:1050B0008091BF010E94871A1092DB018091DA0172
:1050C000882389F02091EE013091EF018091E60173
:1050D0009091E701820F931F9093E7018093E6017F
:1050E00082E00E94EB1B8091D8019091D90184301D
:1050F000910550F42091EE013091EF01820F931F42
:105100009093D9018093D8018091D701882369F0C9
:105110008091C4019091C501892B19F081E08093A1
:10512000C3010E94401B1092D7018091D6018823B1
:1051300089F02091EE013091EF018091E003909190
:10514000E103820F931F9093E1038093E0038FEFBD
:105150000E94EB1B8091D4019091D5018430910580
:1051600050F42091EE013091EF01820F931F909344
:10517000D5018093D4018091D301823009F4E4C534
:1051800018F4882341F03DC78A3009F4E5C58B3017
:1051900009F481C536C78091D201882309F49BC0E8
:1051A0008230B9F440918E0360918D0367FD11C088
:1051B00047FD0FC0E0905503F090560320918F03F8
:1051C000822F880F280F24500CE38EE293E00E9478
:1051D00017150E9460191D861E861F86188AC090AA
:1051E000D001D090D101B601D7FE04C06627772741
:1051F0006C197D0986E0EDE0F1E0DE011196019089
:105200000D928A95E1F7DE0113967E012DE0E20E04
:10521000F11CF7010D911D914FE050E080E090E00E
:10522000880F991F9B01042E02C0369527950A947A
:10523000E2F721703327822B932B8017910760F0C0
:10524000801B910BB18021E030E0042E01C0220FC1
:105250000A94EAF72B2921834150510908F7319626
:1052600049A95AA9E417F50711F0BC01D3CF888BDF
:10527000B12C96EB992E22E0A22E52E0B51202C07C
:10528000D7FC09C0D70113964C91949EA00111241C
:10529000465E5A4F02C044E654E000915503109117
:1052A00056032091CE013091CF017A2D7B19909138
:1052B0008F0380918D0360918E03799F800D11245F
:1052C0000E94D71DB394B1E0EB1AF108E3E0BE12DF
:1052D000D4CF1092D20180910002882321F00E9445
:1052E00045181092000280916F038823B1F18091DC
:1052F000D0019091D101181619067CF1E091CD01F1
:10530000F0E0EE0FFF1FE35AFC4F808191811816E9
:1053100019061CF52091EE013091EF018091FE01FC
:105320009091FF01820F931F8639910528F4909385
:10533000FF018093FE0111C01092FF011092FE0147
:105340009091FD0181E089278093FD01882311F070
:105350008CE301C080E00E940D19809101029091C0
:105360000202A0910302B09104028B3F9105A105B6
:10537000B10508F441C480910401F0E48F9FC0019D
:105380001124836080937C0080917A0080648093F4
:105390007A0080917A0086FDFCCF80917800209180
:1053A000790040912C0330912D0390912A03915064
:1053B00090932A03E42FF32FE90FF11DE90FF11D5C
:1053C00090E0922B9183808380912A0320912B037C
:1053D000811102C020932A03E42FF32F30E060E014
:1053E00070E0CB01231741F041915191640F751F7B
:1053F000811D911D3F5FF6CF30E040E050E00E94FC
:10540000DF308BE0829FB001839F700D112480E01C
:1054100090E00E94C63220E030E040E85AE30E946B
:10542000AC3329E831E440E95FE30E94AC336B011F
:105430007C018AE390E0909333038093320385E705
:1054400090E0909335038093340380916B0388231D
:1054500009F420C1EFEFE80FE43028F4F0E0E15D5B
:10546000FE4F608101C061E08530C8F58330D8F51A
:10547000813008F4A8C070E080E090E00E94C8325B
:105480009B01AC01C701B6010E941E3223E331EE3D
:1054900047E95CE30E941E329B01AC0165E87BE6B4
:1054A00084E892E40E943A319B01AC0162EB7DE911
:1054B0008FEE9FE30E94193420E030E040E85FE384
:1054C0000E943B319B01AC0160E070E080E89FE30B
:1054D0000E941E322FE632E143E05BE336C08530A6
:1054E00009F440C070C070E080E090E00E94C832D3
:1054F0009B01AC01C701B6010E941E3220E43EEDC3
:105500004BEA5CE30E941E329B01AC016AE979E13F
:105510008AE293E40E943A319B01AC016AE67CEB9B
:1055200084EA9FE30E94193420E030E040E85FE322
:105530000E943B319B01AC0160E070E080E89FE39A
:105540000E941E3220E030E0A9010E943B3120E0A1
:1055500030E048EC52E40E94AC330E94973265364A
:1055600080F12CC020E030E040ED50E4C701B601EE
:105570000E943A3120E030E048EC52E40E94AC3323
:1055800028E636E646E250E40E941E326B017C01BA
:1055900020E030E048EC52E40E949F33181674F08B
:1055A00020E030E0A901C701B6010E94193287FD51
:1055B00007C0C701B6010E94903203C064E601C073
:1055C00060E060930501C0906C03D12CE12CF12CBC
:1055D00020910501822F220F990BAA0BBB0B9C0176
:1055E000AD012C193D094E095F09A4E6B0E00E9407
:1055F000FE3024E630E040E050E02C193D094E0931
:105600005F090E94DF3027FD03C02093050102C01F
:105610001092050140915503509156038091050168
:105620008F302CF420915B0330915C0304C02091F7
:105630005703309158033093370320933603509328
:10564000390340933803082E000C990B0E943C1E2E
:1056500085E20E94371EE0905503F090560380913A
:105660005303909154039093370380933603F09241
:105670003903E09238036091320367FD10C0409116
:10568000340347FD0CC007E025E08EE293E00E9462
:10569000171505C041E0C701B6010E94BB1F8091EC
:1056A0008003882309F4E0C180E00E94371F81E075
:1056B0000E94371F20910A0330910B0340910C0385
:1056C00050910D0360911603709117038091180398
:1056D000909119030E943A316B017C0120910603DD
:1056E0003091070340910803509109036091120320
:1056F0007091130380911403909115030E943A3125
:105700004B015C012091020330910303409104039B
:105710005091050360910E0370910F038091100367
:10572000909111030E943A316DA37EA38FA398A795
:1057300089A69AA6ABA6BCA6CDA6DEA6EFA6F8AA19
:10574000CE0185960E94EA138CE0EAE1F3E0DE01E7
:10575000599601900D928A95E1F7CE0149960E94E3
:10576000EA13CDA0DEA0EFA0F8A4CBAADCAAEDAA94
:10577000FEAA49A45AA46BA47CA48DA49EA4AFA4A1
:10578000B8A8C98CDA8CEB8CFC8CCBAEDCAEEDAE61
:10579000FEAECD8CDE8CEF8CF8A0CFAAD8AEE9AEF1
:1057A000FAAEC9A0DAA0EBA0FCA0A7019601C30144
:1057B000B2010E94AC3323966CAF7DAF8EAF9FAF2A
:1057C0002397A50194016FA978AD89AD9AAD0E9488
:1057D000AC339B01AC0123966CAD7DAD8EAD9FAD1E
:1057E00023970E943A316D877E878F87988BA5011A
:1057F00094016BAD7CAD8DAD9EAD0E94AC334B0181
:105800005C01A70196016BA97CA98DA99EA90E94A4
:10581000AC339B01AC01C501B4010E943A31698BE4
:105820007A8B8B8B9C8B2FA938AD49AD5AAD6BA968
:105830007CA98DA99EA90E94AC336B017C012BAD84
:105840003CAD4DAD5EADC301B2010E94AC339B01D6
:10585000AC01C701B6010E943A316D8B7E8B8F8BF4
:10586000988FCE010D960E94EA13C98CDA8CEB8CCE
:10587000FC8CCBAEDCAEEDAEFEAECD8CDE8CEF8C18
:10588000F8A0CFAAD8AEE9AEFAAE89A09AA0ABA094
:10589000BCA04D845E846F847888C988DA88EB88E0
:1058A000FC88CBAADCAAEDAAFEAACD88DE88EF8808
:1058B000F88CA70196016FA978AD89AD9AAD0E94C9
:1058C000AC3323966CAF7DAF8EAF9FAF23972BA9E0
:1058D0003CA94DA95EA9C501B4010E94AC339B014E
:1058E000AC0123966CAD7DAD8EAD9FAD23970E942C
:1058F0003A3169837A838B839C83A3019201C5012A
:10590000B4010E94AC334B015C012BAD3CAD4DADFD
:105910005EADC701B6010E94AC339B01AC01C5016D
:10592000B4010E943A316D837E838F8398872BADBB
:105930003CAD4DAD5EAD6BA97CA98DA99EA90E9421
:10594000AC336B017C012FA938AD49AD5AADC30111
:10595000B2010E94AC339B01AC01C701B6010E94A9
:105960003A3169877A878B879C87CE0101960E949E
:10597000EA1320E030E0A9016D817E818F81988556
:105980000E94AC3329813A814B815C810E943B317A
:105990006B017C0120E030E0A90169857A858B8567
:1059A0009C850E94AC339B01AC01C701B6010E94EB
:1059B0003B316B017C01F7FAF094F7F8F09420E0AA
:1059C00030E0A90169897A898B899C890E94AC336E
:1059D0002D853E854F8558890E943B314B015C01E6
:1059E00020E030E0A9016D897E898F89988D0E9421
:1059F000AC339B01AC01C501B4010E943B31A7014E
:105A000096010E94BA312BED3FE049E450E40E9438
:105A10003B3121EE3EE245E652E40E94AC330E9467
:105A2000973222E531E0C901861B970B6DE270E0E9
:105A30000E94C5356770F62E809106016817A1F0A7
:105A40000091550310915603209153033091540354
:105A500084E3689FA001112444555D4F67E086E30D
:105A60000E94D71DF092060180917F03882309F4DC
:105A7000C3C040901E0350901F036090200370909D
:105A800021038090220390902303A0902403B090E0
:105A9000250320E030E0A90160911A0370911B03F7
:105AA00080911C0390911D030E94AC336B017C011B
:105AB00020E030E0A901C301B2010E94AC336BAB1E
:105AC0007CAB8DAB9EAB20E030E0A901C501B401F9
:105AD0000E94AC339B01AC016BA97CA98DA99EA946
